{"abi":[{"type":"constructor","inputs":[{"name":"_owner","type":"address","internalType":"address"},{"name":"_userHurdle","type":"address","internalType":"contract IUserHurdle"}],"stateMutability":"nonpayable"},{"type":"function","name":"allowance","inputs":[{"name":"owner","type":"address","internalType":"address"},{"name":"spender","type":"address","internalType":"address"},{"name":"id","type":"uint256","internalType":"uint256"}],"outputs":[{"name":"amount","type":"uint256","internalType":"uint256"}],"stateMutability":"view"},{"type":"function","name":"approve","inputs":[{"name":"spender","type":"address","internalType":"address"},{"name":"id","type":"uint256","internalType":"uint256"},{"name":"amount","type":"uint256","internalType":"uint256"}],"outputs":[{"name":"","type":"bool","internalType":"bool"}],"stateMutability":"payable"},{"type":"function","name":"balanceOf","inputs":[{"name":"owner","type":"address","internalType":"address"},{"name":"id","type":"uint256","internalType":"uint256"}],"outputs":[{"name":"amount","type":"uint256","internalType":"uint256"}],"stateMutability":"view"},{"type":"function","name":"cancelOwnershipHandover","inputs":[],"outputs":[],"stateMutability":"payable"},{"type":"function","name":"changeVote","inputs":[{"name":"tokenId","type":"uint256","internalType":"uint256"},{"name":"amount","type":"uint256","internalType":"uint256"}],"outputs":[{"name":"oppositeTokenId","type":"uint256","internalType":"uint256"}],"stateMutability":"nonpayable"},{"type":"function","name":"completeOwnershipHandover","inputs":[{"name":"pendingOwner","type":"address","internalType":"address"}],"outputs":[],"stateMutability":"payable"},{"type":"function","name":"decimals","inputs":[{"name":"","type":"uint256","internalType":"uint256"}],"outputs":[{"name":"","type":"uint8","internalType":"uint8"}],"stateMutability":"pure"},{"type":"function","name":"getOppositeTokenId","inputs":[{"name":"tokenId","type":"uint256","internalType":"uint256"}],"outputs":[{"name":"oppositeTokenId","type":"uint256","internalType":"uint256"}],"stateMutability":"pure"},{"type":"function","name":"getPost","inputs":[{"name":"tokenId","type":"uint256","internalType":"uint256"}],"outputs":[{"name":"postId","type":"uint96","internalType":"uint96"},{"name":"yesVote","type":"bool","internalType":"bool"}],"stateMutability":"pure"},{"type":"function","name":"getTokenId","inputs":[{"name":"postId","type":"uint96","internalType":"uint96"},{"name":"yesVote","type":"bool","internalType":"bool"}],"outputs":[{"name":"tokenId","type":"uint256","internalType":"uint256"}],"stateMutability":"pure"},{"type":"function","name":"hasVoted","inputs":[{"name":"who","type":"address","internalType":"address"},{"name":"postId","type":"uint96","internalType":"uint96"}],"outputs":[{"name":"","type":"bool","internalType":"bool"}],"stateMutability":"view"},{"type":"function","name":"isOperator","inputs":[{"name":"owner","type":"address","internalType":"address"},{"name":"spender","type":"address","internalType":"address"}],"outputs":[{"name":"status","type":"bool","internalType":"bool"}],"stateMutability":"view"},{"type":"function","name":"name","inputs":[{"name":"tokenId","type":"uint256","internalType":"uint256"}],"outputs":[{"name":"","type":"string","internalType":"string"}],"stateMutability":"pure"},{"type":"function","name":"nextPostId","inputs":[],"outputs":[{"name":"","type":"uint96","internalType":"uint96"}],"stateMutability":"view"},{"type":"function","name":"owner","inputs":[],"outputs":[{"name":"result","type":"address","internalType":"address"}],"stateMutability":"view"},{"type":"function","name":"ownershipHandoverExpiresAt","inputs":[{"name":"pendingOwner","type":"address","internalType":"address"}],"outputs":[{"name":"result","type":"uint256","internalType":"uint256"}],"stateMutability":"view"},{"type":"function","name":"post","inputs":[{"name":"imageURI","type":"string","internalType":"string"}],"outputs":[{"name":"postId","type":"uint96","internalType":"uint96"}],"stateMutability":"nonpayable"},{"type":"function","name":"postAndVote","inputs":[{"name":"postDirURI","type":"string","internalType":"string"},{"name":"voteYes","type":"bool","internalType":"bool"}],"outputs":[{"name":"postId","type":"uint96","internalType":"uint96"},{"name":"tokenId","type":"uint256","internalType":"uint256"},{"name":"amount","type":"uint256","internalType":"uint256"}],"stateMutability":"nonpayable"},{"type":"function","name":"renounceOwnership","inputs":[],"outputs":[],"stateMutability":"payable"},{"type":"function","name":"requestOwnershipHandover","inputs":[],"outputs":[],"stateMutability":"payable"},{"type":"function","name":"setOperator","inputs":[{"name":"operator","type":"address","internalType":"address"},{"name":"approved","type":"bool","internalType":"bool"}],"outputs":[{"name":"","type":"bool","internalType":"bool"}],"stateMutability":"payable"},{"type":"function","name":"setUserHurdle","inputs":[{"name":"_userHurdle","type":"address","internalType":"contract IUserHurdle"}],"outputs":[],"stateMutability":"nonpayable"},{"type":"function","name":"supportsInterface","inputs":[{"name":"interfaceId","type":"bytes4","internalType":"bytes4"}],"outputs":[{"name":"result","type":"bool","internalType":"bool"}],"stateMutability":"view"},{"type":"function","name":"symbol","inputs":[{"name":"tokenId","type":"uint256","internalType":"uint256"}],"outputs":[{"name":"","type":"string","internalType":"string"}],"stateMutability":"pure"},{"type":"function","name":"token","inputs":[],"outputs":[{"name":"","type":"address","internalType":"contract ChandelierOrNotToken"}],"stateMutability":"view"},{"type":"function","name":"tokenURI","inputs":[{"name":"tokenId","type":"uint256","internalType":"uint256"}],"outputs":[{"name":"","type":"string","internalType":"string"}],"stateMutability":"view"},{"type":"function","name":"totalSupply","inputs":[{"name":"tokenId","type":"uint256","internalType":"uint256"}],"outputs":[{"name":"","type":"uint256","internalType":"uint256"}],"stateMutability":"view"},{"type":"function","name":"transfer","inputs":[{"name":"to","type":"address","internalType":"address"},{"name":"id","type":"uint256","internalType":"uint256"},{"name":"amount","type":"uint256","internalType":"uint256"}],"outputs":[{"name":"","type":"bool","internalType":"bool"}],"stateMutability":"payable"},{"type":"function","name":"transferFrom","inputs":[{"name":"from","type":"address","internalType":"address"},{"name":"to","type":"address","internalType":"address"},{"name":"id","type":"uint256","internalType":"uint256"},{"name":"amount","type":"uint256","internalType":"uint256"}],"outputs":[{"name":"","type":"bool","internalType":"bool"}],"stateMutability":"payable"},{"type":"function","name":"transferOwnership","inputs":[{"name":"newOwner","type":"address","internalType":"address"}],"outputs":[],"stateMutability":"payable"},{"type":"function","name":"userHurdle","inputs":[],"outputs":[{"name":"","type":"address","internalType":"contract IUserHurdle"}],"stateMutability":"view"},{"type":"function","name":"vote","inputs":[{"name":"postId","type":"uint96","internalType":"uint96"},{"name":"voteYes","type":"bool","internalType":"bool"}],"outputs":[{"name":"tokenId","type":"uint256","internalType":"uint256"},{"name":"mintTokenAmount","type":"uint256","internalType":"uint256"}],"stateMutability":"nonpayable"},{"type":"function","name":"winner","inputs":[{"name":"postId","type":"uint96","internalType":"uint96"}],"outputs":[{"name":"yesIsWinning","type":"bool","internalType":"bool"},{"name":"yesVotes","type":"uint256","internalType":"uint256"},{"name":"noVotes","type":"uint256","internalType":"uint256"}],"stateMutability":"view"},{"type":"event","name":"Approval","inputs":[{"name":"owner","type":"address","indexed":true,"internalType":"address"},{"name":"spender","type":"address","indexed":true,"internalType":"address"},{"name":"id","type":"uint256","indexed":true,"internalType":"uint256"},{"name":"amount","type":"uint256","indexed":false,"internalType":"uint256"}],"anonymous":false},{"type":"event","name":"NewPost","inputs":[{"name":"poster","type":"address","indexed":true,"internalType":"address"},{"name":"postId","type":"uint256","indexed":false,"internalType":"uint256"}],"anonymous":false},{"type":"event","name":"OperatorSet","inputs":[{"name":"owner","type":"address","indexed":true,"internalType":"address"},{"name":"operator","type":"address","indexed":true,"internalType":"address"},{"name":"approved","type":"bool","indexed":false,"internalType":"bool"}],"anonymous":false},{"type":"event","name":"OwnershipHandoverCanceled","inputs":[{"name":"pendingOwner","type":"address","indexed":true,"internalType":"address"}],"anonymous":false},{"type":"event","name":"OwnershipHandoverRequested","inputs":[{"name":"pendingOwner","type":"address","indexed":true,"internalType":"address"}],"anonymous":false},{"type":"event","name":"OwnershipTransferred","inputs":[{"name":"oldOwner","type":"address","indexed":true,"internalType":"address"},{"name":"newOwner","type":"address","indexed":true,"internalType":"address"}],"anonymous":false},{"type":"event","name":"Transfer","inputs":[{"name":"by","type":"address","indexed":false,"internalType":"address"},{"name":"from","type":"address","indexed":true,"internalType":"address"},{"name":"to","type":"address","indexed":true,"internalType":"address"},{"name":"id","type":"uint256","indexed":true,"internalType":"uint256"},{"name":"amount","type":"uint256","indexed":false,"internalType":"uint256"}],"anonymous":false},{"type":"error","name":"AlreadyInitialized","inputs":[]},{"type":"error","name":"AlreadyVoted","inputs":[]},{"type":"error","name":"BalanceOverflow","inputs":[]},{"type":"error","name":"InsufficientBalance","inputs":[]},{"type":"error","name":"InsufficientPermission","inputs":[]},{"type":"error","name":"NewOwnerIsZeroAddress","inputs":[]},{"type":"error","name":"NoHandoverRequest","inputs":[]},{"type":"error","name":"Unauthorized","inputs":[]}],"bytecode":{"object":"0x60a03461011557601f61216c38819003918201601f19168301916001600160401b038311848410176101015780849260409485528339810103126101155780516001600160a01b038116919082900361011557602001516001600160a01b03811690819003610115575f80546001600160a01b031916919091178155638b78c6d8198290557f8be0079c531659141344cd1fd0a4f28419497f9722a3daafe3b4186f6b6457e08180a36040516108678082016001600160401b03811183821017610101578291611905833903905ff080156100f6576080526040516117eb908161011a82396080518181816102ce015261126c0152f35b6040513d5f823e3d90fd5b634e487b7160e01b5f52604160045260245ffd5b5f80fdfe60806040526004361015610011575f80fd5b5f3560e01c8062ad800c14610f53578062fdd58e14610f1757806301ffc9a714610ed3578063095bcdb614610e5d57806319983d8e14610e1a5780631d9b5c6614610df35780632569296214610daa5780632f3e01a714610d3d5780633f47e66214610d2257806340731c2414610ced578063426a849314610c895780634d72462514610c515780634e41a1fb14610c32578063512fc99814610ba657806354d1f13d14610b62578063558a729714610af0578063598af9e714610aa45780635c09bd9814610a85578063715018a614610a3c5780638da5cb5b14610a105780638ee93cf3146109c3578063a743623714610951578063a9593b981461085d578063b6363cf214610818578063bd85b039146107ee578063c87b56dd146103d9578063ead3e3d7146103ad578063f04e283e14610360578063f2fde38b14610323578063f4c53f78146102fd578063fc0c546a146102b9578063fe99049a146101b85763fee81cf414610182575f80fd5b346101b45760203660031901126101b45761019b610f9c565b63389a75e1600c525f52602080600c2054604051908152f35b5f80fd5b60803660031901126101b4576101cc610f9c565b6101d4610fb2565b906044359160643567edcaa89a82293940603452826028523360145260346020205415610280575b8360145260406014208054808311610273578290039055816028528360145260406014208054908282019182106102665755335f5260205260018060a01b03169060018060a01b03165f5160206117965f395f51905f5260405fa45f603452602060405160018152f35b6389560ca15f526004601cfd5b63f4d678b85f526004601cfd5b835f5260545f20805460018101610299575b50506101fc565b8083116102ac5782900390558480610292565b63deda90305f526004601cfd5b346101b4575f3660031901126101b4576040517f00000000000000000000000000000000000000000000000000000000000000006001600160a01b03168152602090f35b346101b45760203660031901126101b457602061031b6004356116d3565b604051908152f35b60203660031901126101b457610337610f9c565b61033f61173c565b8060601b156103535761035190611758565b005b637448fbae5f526004601cfd5b60203660031901126101b457610374610f9c565b61037c61173c565b63389a75e1600c52805f526020600c2090815442116103a0575f6103519255611758565b636f5e88185f526004601cfd5b346101b45760403660031901126101b457602061031b6103cb61102f565b6103d3611020565b9061167c565b346101b45760203660031901126101b4576004356103f681611136565b90916001600160601b035f5460a01c9316928310156107aa5761042161041b8261107b565b91611357565b9160405193608085019460a081016040525f8652600a5f965b5f19019660308282060188530495861561045657600a9061043a565b60209650600c926080828994030191601f19019182525f526003825260405f20935f146107825760298260405161048e604082611045565b60048152637472756560e01b82820152975b604051607b60f81b8b82015267113730b6b2911d1160c11b60218201528851909a8b99829101858b015e88019061088b60f21b84830152691139bcb6b137b6111d1160b11b602b830152805192839101603583015e01019061088b60f21b848301526b113232b1b4b6b0b639911d1160a11b600e830152805192839101601a83015e01019061088b60f21b600e830152681134b6b0b3b2911d1160b91b60108301525f91815491610550836113fd565b92600181169081156107585750600114610719575b505061088b60f21b8252506a113b37ba32b22cb2b9911d60a91b600282015282516105b693600193600d9390929182906020018286015e01607d60f81b838201520301601e19810184520182611045565b8060609181519081610629575b6106256020610619603d876040519384917f646174613a6170706c69636174696f6e2f6a736f6e3b6261736536342c000000828401528051918291018484015e81015f838201520301601f198101835282611045565b60405191829182610f72565b0390f35b909192506003600283010460021b906040517f4142434445464748494a4b4c4d4e4f505152535455565758595a616263646566601f526106707f6768696a6b6c6d6e6f707172737475767778797a303132333435363738392d5f18603f5260208101928082019260208681860198010194600460038751935f89525b0191603f8351818160121c16515f538181600c1c1651600153818160061c165160025316516003535f5181520190888210156106e6576004906003906106a5565b5061062597506020966040603d965f946106199952016040526003613d3d60f01b910660020482035252815293506105c3565b909192505f5260205f205f905b83821061073e575050016019018160206105b6610565565b805482840160190152869450602090910190600101610726565b60ff19166019808501919091528415159094029092019092019250839150602090506105b6610565565b602982604051610793604082611045565b600581526466616c736560d81b82820152976104a0565b606460405162461bcd60e51b815260206004820152602060248201527f4368616e64656c6965724f724e6f743a20696e76616c696420706f73742069646044820152fd5b346101b45760203660031901126101b4576004355f526001602052602060405f2054604051908152f35b346101b45760403660031901126101b457610831610f9c565b610839610fb2565b9067edcaa89a822939406020526014525f5260206034600c20546040519015158152f35b346101b45760403660031901126101b4576004356024359067edcaa89a8229394060205233601452805f5260405f208054808411610273578390039055335f5281602052805f335f5160206117965f395f51905f52604083a4805f52600160205260405f2090815483810390811161093d576108d992556116d3565b805f52600160205260405f2080549083820180921161093d575567edcaa89a8229394060205233601452805f5260405f209182548181019081106102665760209355335f52825280335f5f5160206117965f395f51905f52604082a4604051908152f35b634e487b7160e01b5f52601160045260245ffd5b346101b45760403660031901126101b45761096a610f9c565b6024356001600160601b03811681036101b4576020916001600160601b036109b99216906001600160601b03199060601b16176001908060081c5f52600260205260ff60405f205491161c1690565b6040519015158152f35b346101b45760203660031901126101b45760043567ffffffffffffffff81116101b4576109ff6109f96020923690600401610ff2565b90611435565b6001600160601b0360405191168152f35b346101b4575f3660031901126101b457638b78c6d819546040516001600160a01b039091168152602090f35b5f3660031901126101b457610a4f61173c565b5f638b78c6d819547f8be0079c531659141344cd1fd0a4f28419497f9722a3daafe3b4186f6b6457e08280a35f638b78c6d81955005b346101b4575f3660031901126101b45760205f5460a01c604051908152f35b346101b45760603660031901126101b457610abd610f9c565b610ac5610fb2565b9067edcaa89a822939406034526028526014526044355f52602060545f20545f603452604051908152f35b60403660031901126101b457610b04610f9c565b610b0c611020565b15159067edcaa89a82293940602052336014525f52806034600c2055602052600c5160601c337fceb576d9f15e4e200fdb5096d64d5dfd667e16def20c1eefd14256d8e3faa267602080a3602060405160018152f35b5f3660031901126101b45763389a75e1600c52335f525f6020600c2055337ffa7b8eab7da67f412cc9575ed43464468f9bfbae89d1675917346ca6d8fe3c925f80a2005b346101b45760203660031901126101b457610bbf61102f565b60011b6c01fffffffffffffffffffffffe6bfffffffffffffffffffffffe82169116810361093d576001600160601b03811161093d57600181019081811161093d576060915f52600160205260405f2054905f52600160205260405f205460405191818111835260208301526040820152f35b346101b45760203660031901126101b457610625610619600435611357565b346101b45760403660031901126101b4576040610c7d610c6f61102f565b610c77611020565b90611180565b82519182526020820152f35b610c9236610fc8565b909167edcaa89a8229394060345233602852601452815f528060545f20555f5260205160601c337fb3fd5071835887567a0671151121894ddccc2842f1d10bedad13e0d17cace9a760205fa45f603452602060405160018152f35b346101b45760203660031901126101b4576040610d0b600435611136565b6001600160601b0383519216825215156020820152f35b346101b45760203660031901126101b45760206040515f8152f35b346101b45760403660031901126101b45760043567ffffffffffffffff81116101b457610d87610d8e610d766060933690600401610ff2565b610d81939193611020565b93611435565b9182611180565b906001600160601b036040519316835260208301526040820152f35b5f3660031901126101b45763389a75e1600c52335f526202a30042016020600c2055337fdbf36a107da19e49527a7176a1babf963b4b0ff8cde35ee35d6cd8f1f9ac7e1d5f80a2005b346101b4575f3660031901126101b4575f546040516001600160a01b039091168152602090f35b346101b45760203660031901126101b4576004356001600160a01b038116908190036101b457610e4861173c565b6001600160601b0360a01b5f5416175f555f80f35b610e6636610fc8565b67edcaa89a8229394060209392935233601452825f5260405f20805480831161027357829003905581601452825f5260405f208054908282019182106102665755335f5260205260018060a01b0316335f5160206117965f395f51905f5260405fa4602060405160018152f35b346101b45760203660031901126101b4576004356001600160e01b0319811681036101b45760209060e01c604051906301ffc9a7630f632fb3821491141715158152f35b346101b45760403660031901126101b457610f30610f9c565b67edcaa89a822939406020526014526024355f52602060405f2054604051908152f35b346101b45760203660031901126101b45761062561061960043561107b565b602060409281835280519182918282860152018484015e5f828201840152601f01601f1916010190565b600435906001600160a01b03821682036101b457565b602435906001600160a01b03821682036101b457565b60609060031901126101b4576004356001600160a01b03811681036101b457906024359060443590565b9181601f840112156101b45782359167ffffffffffffffff83116101b457602083818601950101116101b457565b6024359081151582036101b457565b600435906001600160601b03821682036101b457565b90601f8019910116810190811067ffffffffffffffff82111761106757604052565b634e487b7160e01b5f52604160045260245ffd5b611086602091611136565b156110df57602c6110a26001600160601b036110dc93166116f7565b6040519384916b4368616e64656c696572202360a01b828401528051918291018484015e81015f838201520301601f198101835282611045565b90565b60326110f66001600160601b036110dc93166116f7565b604051938491714e6f742061204368616e64656c696572202360701b828401528051918291018484015e81015f838201520301601f198101835282611045565b90600182901c600160601b81101561115b5760016001600160601b0381921693161490565b6335278d125f526004601cfd5b908160209103126101b4575180151581036101b45790565b5f916001600160601b0382166001600160601b03193360601b1617916111bc836001908060081c5f52600260205260ff60405f205491161c1690565b61134857826111e49360081c5f526002602052600160ff60405f2092161b815417905561167c565b91825f52600160205260405f208054906001820180921161093d575567edcaa89a8229394060205233601452825f5260405f20805490600182019182106102665755335f52600160205282335f5f5160206117965f395f51905f52604082a45f546001600160a01b031680159081156112e3575b5061125f57565b670de0b6b3a764000091507f00000000000000000000000000000000000000000000000000000000000000006001600160a01b0316803b156101b4575f80916044604051809481936340c10f1960e01b83523360048401528860248401525af180156112d8576112cc5750565b5f6112d691611045565b565b6040513d5f823e3d90fd5b5f9150602090602460405180948193638ea8033160e01b83523360048401525af19081156112d8575f91611319575b505f611258565b61133b915060203d602011611341575b6113338183611045565b810190611168565b5f611312565b503d611329565b637c9a1cf960e01b5f5260045ffd5b611362602091611136565b156113b257602661137e6001600160601b036110dc93166116f7565b60405193849165434e4f542d5960d01b828401528051918291018484015e81015f838201520301601f198101835282611045565b60266113c96001600160601b036110dc93166116f7565b6040519384916521a727aa16a760d11b828401528051918291018484015e81015f838201520301601f198101835282611045565b90600182811c9216801561142b575b602083101461141757565b634e487b7160e01b5f52602260045260245ffd5b91607f169161140c565b5f549192916001600160a01b03168015159081611626575b506115d5575f54908160a01c916001600160601b03831461093d576001600160a01b03166001830160a01b6001600160a01b031916175f908155828152600360205260409020919384929167ffffffffffffffff82116110675781906114b384546113fd565b601f8111611585575b505f90601f831160011461151e575f92611513575b50508160011b915f199060031b1c19161790555b6040519081527f227d44868fd91794465aa9733e53308aaf7503a80920f790d5060691fe03a3e760203392a2565b013590505f806114d1565b909150601f19831691845f5260205f20925f5b81811061156d5750908460019594939210611554575b505050811b0190556114e5565b01355f19600384901b60f8161c191690555f8080611547565b91936020600181928787013581550195019201611531565b909150835f5260205f20601f840160051c810191602085106115cb575b90601f859493920160051c01905b8181106115bd57506114bc565b5f81558493506001016115b0565b90915081906115a2565b60405162461bcd60e51b8152602060048201526024808201527f4368616e64656c6965724f724e6f743a206e6f7420616c6c6f77656420746f206044820152631c1bdcdd60e21b6064820152608490fd5b5f91506020906024604051809481936364e4727960e01b83523360048401525af19081156112d8575f9161165d575b50155f61144d565b611676915060203d602011611341576113338183611045565b5f611655565b60011b906c01fffffffffffffffffffffffe6bfffffffffffffffffffffffe83169216820361093d57156116cb5760ff60015b16016001600160601b03811161093d576001600160601b031690565b60ff5f6116af565b600181166116e9576001810180911161093d5790565b5f19810190811161093d5790565b90604051600a608082019360a083016040525f8552935b5f19019360308282060185530492831561172a57600a9061170e565b809350608091030191601f1901918252565b638b78c6d81954330361174b57565b6382b429005f526004601cfd5b60018060a01b031680638b78c6d819547f8be0079c531659141344cd1fd0a4f28419497f9722a3daafe3b4186f6b6457e05f80a3638b78c6d8195556fe1b3d7edb2e9c0b0e7c525b20aaaef0f5940d2ed71663c7d39266ecafac728859a26469706673582212203e220e1350172d6d2c879b215ce2243a1781e5b8406e1c2d93902063912ba1e664736f6c634300081c003360a0806040523460295733608052610839908161002e823960805181818161042801526107170152f35b5f80fdfe60806040526004361015610011575f80fd5b5f3560e01c806306fdde03146107465780630754617214610702578063095ea7b31461069757806318160ddd1461067257806323b872dd14610599578063313ce5671461057e5780633644e515146104d857806340c10f191461040957806370a08231146103d75780637ecebe00146103a557806395d89b411461033e578063a9059cbb146102af578063d505accf146100f55763dd62ed3e146100b3575f80fd5b346100f15760403660031901126100f1576100cc6107b3565b6100d46107c9565b602052637f5e9f20600c525f5260206034600c2054604051908152f35b5f80fd5b346100f15760e03660031901126100f15761010e6107b3565b6101166107c9565b6084359160643560443560ff851685036100f1576101326107df565b6020810190764368616e64656c696572206f72204e6f7420566f74657360481b8252519020908242116102a2576040519360018060a01b03169460018060a01b03169565383775081901600e52855f5260c06020600c20958654957f8b73c3c69bb8fe3d512ecc4cf759cc79239f7b179b0ffacaa9a75d522b39400f8252602082019586528660408301967fc89efdaa54c0f20c7adf612882df0950f5a951637e0307cdcb4c672f298b8bc688528b6060850198468a528c608087019330855260a08820602e527f6e71edae12b1b97f4d1f60370fef10105fa2faae0126114a169c64845d6126c9885252528688525260a082015220604e526042602c205f5260ff1660205260a43560405260c43560605260208060805f60015afa93853d5103610295577f8c5be1e5ebec7d5bd14f71427d1e84f3dd0314c0f7b2291e5b200ac8c7c3b92594602094019055856303faf4f960a51b176040526034602c2055a3005b63ddafbaef5f526004601cfd5b631a15a3cc5f526004601cfd5b346100f15760403660031901126100f1576102c86107b3565b602435906387a211a2600c52335f526020600c2080548084116103315783900390555f526020600c20818154019055602052600c5160601c337fddf252ad1be2c89b69c2b068fc378daa952ba7f163c4a11628f55a4df523b3ef602080a3602060405160018152f35b63f4d678b85f526004601cfd5b346100f1575f3660031901126100f157604051604081019080821067ffffffffffffffff8311176103915761038d91604052600481526310d393d560e21b602082015260405191829182610789565b0390f35b634e487b7160e01b5f52604160045260245ffd5b346100f15760203660031901126100f1576103be6107b3565b6338377508600c525f52602080600c2054604051908152f35b346100f15760203660031901126100f1576103f06107b3565b6387a211a2600c525f52602080600c2054604051908152f35b346100f15760403660031901126100f1576104226107b3565b602435907f00000000000000000000000000000000000000000000000000000000000000006001600160a01b031633036104c9576805345cdf77eb68f44c548281019081106104bc576805345cdf77eb68f44c556387a211a2600c525f526020600c20818154019055602052600c5160601c5f7fddf252ad1be2c89b69c2b068fc378daa952ba7f163c4a11628f55a4df523b3ef602080a3005b63e5cfe9575f526004601cfd5b633e34a41b60e21b5f5260045ffd5b346100f1575f3660031901126100f157602060a06104f46107df565b82810190764368616e64656c696572206f72204e6f7420566f74657360481b8252519020604051907f8b73c3c69bb8fe3d512ecc4cf759cc79239f7b179b0ffacaa9a75d522b39400f8252838201527fc89efdaa54c0f20c7adf612882df0950f5a951637e0307cdcb4c672f298b8bc6604082015246606082015230608082015220604051908152f35b346100f1575f3660031901126100f157602060405160128152f35b346100f15760603660031901126100f1576105b26107b3565b6105ba6107c9565b604435908260601b33602052637f5e9f208117600c526034600c2090815491821961064e575b506387a211a2915017600c526020600c2080548084116103315783900390555f526020600c20818154019055602052600c5160601c9060018060a01b03167fddf252ad1be2c89b69c2b068fc378daa952ba7f163c4a11628f55a4df523b3ef602080a3602060405160018152f35b82851161066557846387a211a293039055856105e0565b6313be252b5f526004601cfd5b346100f1575f3660031901126100f15760206805345cdf77eb68f44c54604051908152f35b346100f15760403660031901126100f1576106b06107b3565b60243590602052637f5e9f20600c52335f52806034600c20555f52602c5160601c337f8c5be1e5ebec7d5bd14f71427d1e84f3dd0314c0f7b2291e5b200ac8c7c3b92560205fa3602060405160018152f35b346100f1575f3660031901126100f1576040517f00000000000000000000000000000000000000000000000000000000000000006001600160a01b03168152602090f35b346100f1575f3660031901126100f15761038d6107616107df565b764368616e64656c696572206f72204e6f7420566f74657360481b6020820152604051918291825b602060409281835280519182918282860152018484015e5f828201840152601f01601f1916010190565b600435906001600160a01b03821682036100f157565b602435906001600160a01b03821682036100f157565b604051906040820182811067ffffffffffffffff821117610391576040526017825256fea2646970667358221220690fcd725b4703b1c5b63da5a36471dbc37d29581a5d8f176d033744298c705064736f6c634300081c0033","linkReferences":{}},"methodIdentifiers":{"allowance(address,address,uint256)":"598af9e7","approve(address,uint256,uint256)":"426a8493","balanceOf(address,uint256)":"00fdd58e","cancelOwnershipHandover()":"54d1f13d","changeVote(uint256,uint256)":"a9593b98","completeOwnershipHandover(address)":"f04e283e","decimals(uint256)":"3f47e662","getOppositeTokenId(uint256)":"f4c53f78","getPost(uint256)":"40731c24","getTokenId(uint96,bool)":"ead3e3d7","hasVoted(address,uint96)":"a7436237","isOperator(address,address)":"b6363cf2","name(uint256)":"00ad800c","nextPostId()":"5c09bd98","owner()":"8da5cb5b","ownershipHandoverExpiresAt(address)":"fee81cf4","post(string)":"8ee93cf3","postAndVote(string,bool)":"2f3e01a7","renounceOwnership()":"715018a6","requestOwnershipHandover()":"25692962","setOperator(address,bool)":"558a7297","setUserHurdle(address)":"19983d8e","supportsInterface(bytes4)":"01ffc9a7","symbol(uint256)":"4e41a1fb","token()":"fc0c546a","tokenURI(uint256)":"c87b56dd","totalSupply(uint256)":"bd85b039","transfer(address,uint256,uint256)":"095bcdb6","transferFrom(address,address,uint256,uint256)":"fe99049a","transferOwnership(address)":"f2fde38b","userHurdle()":"1d9b5c66","vote(uint96,bool)":"4d724625","winner(uint96)":"512fc998"},"id":41}