{"abi":[{"type":"constructor","inputs":[{"name":"_owner","type":"address","internalType":"address"},{"name":"_verifications","type":"address","internalType":"contract INeynarVerificationsReader"}],"stateMutability":"nonpayable"},{"type":"function","name":"acceptOwnership","inputs":[],"outputs":[],"stateMutability":"nonpayable"},{"type":"function","name":"allowed","inputs":[{"name":"who","type":"address","internalType":"address"}],"outputs":[{"name":"","type":"bool","internalType":"bool"}],"stateMutability":"view"},{"type":"function","name":"owner","inputs":[],"outputs":[{"name":"","type":"address","internalType":"address"}],"stateMutability":"view"},{"type":"function","name":"pendingOwner","inputs":[],"outputs":[{"name":"","type":"address","internalType":"address"}],"stateMutability":"view"},{"type":"function","name":"renounceOwnership","inputs":[],"outputs":[],"stateMutability":"nonpayable"},{"type":"function","name":"setVerifications","inputs":[{"name":"_verifications","type":"address","internalType":"contract INeynarVerificationsReader"}],"outputs":[],"stateMutability":"nonpayable"},{"type":"function","name":"transferOwnership","inputs":[{"name":"newOwner","type":"address","internalType":"address"}],"outputs":[],"stateMutability":"nonpayable"},{"type":"function","name":"verifications","inputs":[],"outputs":[{"name":"","type":"address","internalType":"contract INeynarVerificationsReader"}],"stateMutability":"view"},{"type":"event","name":"OwnershipTransferStarted","inputs":[{"name":"previousOwner","type":"address","indexed":true,"internalType":"address"},{"name":"newOwner","type":"address","indexed":true,"internalType":"address"}],"anonymous":false},{"type":"event","name":"OwnershipTransferred","inputs":[{"name":"previousOwner","type":"address","indexed":true,"internalType":"address"},{"name":"newOwner","type":"address","indexed":true,"internalType":"address"}],"anonymous":false},{"type":"error","name":"OwnableInvalidOwner","inputs":[{"name":"owner","type":"address","internalType":"address"}]},{"type":"error","name":"OwnableUnauthorizedAccount","inputs":[{"name":"account","type":"address","internalType":"address"}]}],"bytecode":{"object":"0x6080346100f157601f6104b738819003918201601f19168301916001600160401b038311848410176100f55780849260409485528339810103126100f15780516001600160a01b03811691908290036100f157602001516001600160a01b038116908190036100f15781156100de57600180546001600160a01b03199081169091555f80549182168417815560405193916001600160a01b0316907f8be0079c531659141344cd1fd0a4f28419497f9722a3daafe3b4186f6b6457e09080a3600280546001600160a01b0319169190911790556103ad908161010a8239f35b631e4fbdf760e01b5f525f60045260245ffd5b5f80fd5b634e487b7160e01b5f52604160045260245ffdfe6080806040526004361015610012575f80fd5b5f3560e01c908163293923351461034157508063470e1b37146102f7578063715018a61461029457806379ba50971461020f5780638da5cb5b146101e8578063d63a8e1114610113578063e30c3978146100eb5763f2fde38b14610074575f80fd5b346100e75760203660031901126100e7576004356001600160a01b038116908190036100e7576100a2610364565b600180546001600160a01b031916821790555f80546001600160a01b0316907f38d16b8cac22d99fc7c124b9cd0de2d3fa1faef420bfe791d8c362d765e227009080a3005b5f80fd5b346100e7575f3660031901126100e7576001546040516001600160a01b039091168152602090f35b346100e75760203660031901126100e7576004356001600160a01b038116908190036100e757600254604051631054261760e11b81526004810192909252602090829060249082906001600160a01b03165afa80156101dd575f90610180575b6020906040519015158152f35b5060203d6020116101d6575b601f8101601f1916820167ffffffffffffffff8111838210176101c2576020918391604052810103126100e75760209051610173565b634e487b7160e01b5f52604160045260245ffd5b503d61018c565b6040513d5f823e3d90fd5b346100e7575f3660031901126100e7575f546040516001600160a01b039091168152602090f35b346100e7575f3660031901126100e757600154336001600160a01b039091160361028157600180546001600160a01b03199081169091555f805433928116831782556001600160a01b0316907f8be0079c531659141344cd1fd0a4f28419497f9722a3daafe3b4186f6b6457e09080a3005b63118cdaa760e01b5f523360045260245ffd5b346100e7575f3660031901126100e7576102ac610364565b600180546001600160a01b03199081169091555f80549182168155906001600160a01b03167f8be0079c531659141344cd1fd0a4f28419497f9722a3daafe3b4186f6b6457e08280a3005b346100e75760203660031901126100e7576004356001600160a01b038116908190036100e757610325610364565b6bffffffffffffffffffffffff60a01b60025416176002555f80f35b346100e7575f3660031901126100e7576002546001600160a01b03168152602090f35b5f546001600160a01b031633036102815756fea2646970667358221220b81c4d109c0c316070cb12f88c03bbf9b7237bc046be0387262dc37b97ac666d64736f6c634300081c0033","linkReferences":{}},"methodIdentifiers":{"acceptOwnership()":"79ba5097","allowed(address)":"d63a8e11","owner()":"8da5cb5b","pendingOwner()":"e30c3978","renounceOwnership()":"715018a6","setVerifications(address)":"470e1b37","transferOwnership(address)":"f2fde38b","verifications()":"29392335"},"id":4}